:100000000C942A000C9447000C9447000C94470071
:100010000C9447000C9447000C9447000C94470044
:100020000C9447000C9447000C9447000C94470034
:100030000C9447000C9447000C9447000C94470024
:100040000C9447000C9447000C9447000C94470014
:100050000C94470011241FBECFE5D8E0DEBFCDBF12
:1000600011E0A0E6B0E0EEE3FAE002C005900D92E8
:10007000AE31B107D9F721E0AEE1B1E001C01D9288
:10008000AA32B207E1F70E94AE030C941D050C944E
:1000900000003E9A3F98389A3D98359A309A319AA6
:1000A000329A3398379A0895369A349BFECF64B1CA
:1000B00075B144EF51E0649F9001659F300D749FCE
:1000C000300D1124232F26952695FC0120831182C3
:1000D00008954423B9F1413009F06BC0813089F0B3
:1000E00028F08230C9F0833011F108952AB381E0FD
:1000F00090E002C0880F991F6A95E2F7822B8ABBB5
:10010000089527B381E090E002C0880F991F6A9597
:10011000E2F7822B87BB089524B381E090E002C010
:10012000880F991F6A95E2F7822B84BB089521B34B
:1001300081E090E002C0880F991F6A95E2F7822B58
:1001400081BB0895813091F028F08230D9F083305E
:1001500029F108952AB381E090E002C0880F991F29
:100160006A95E2F7809582238ABB089527B381E0E0
:1001700090E002C0880F991F6A95E2F7809582236C
:1001800087BB089524B381E090E002C0880F991FD7
:100190006A95E2F78095822384BB089521B381E0BC
:1001A00090E002C0880F991F6A95E2F7809582233C
:1001B00081BB08954423B9F1413009F06BC081300F
:1001C00089F028F08230C9F0833011F108952BB303
:1001D00081E090E002C0880F991F6A95E2F7822BB8
:1001E0008BBB089528B381E090E002C0880F991F6F
:1001F0006A95E2F7822B88BB089525B381E090E0F1
:1002000002C0880F991F6A95E2F7822B85BB08957B
:1002100022B381E090E002C0880F991F6A95E2F74F
:10022000822B82BB0895813091F028F08230D9F082
:10023000833029F108952BB381E090E002C0880F4C
:10024000991F6A95E2F7809582238BBB089528B3A6
:1002500081E090E002C0880F991F6A95E2F78095CF
:10026000822388BB089525B381E090E002C0880F07
:10027000991F6A95E2F78095822385BB089522B382
:1002800081E090E002C0880F991F6A95E2F780959F
:10029000822382BB0895813089F028F08230C9F032
:1002A000833011F1089589B390E002C09595879548
:1002B0006A95E2F78170FA018083089586B390E031
:1002C00002C0959587956A95E2F78170FA0180835F
:1002D000089583B390E002C0959587956A95E2F7FB
:1002E0008170FA018083089580B390E002C09595F3
:1002F00087956A95E2F78170FA01808308958130CD
:1003000089F028F08230C9F0833011F108952BB3C1
:1003100081E090E002C0880F991F6A95E2F7822B76
:100320008BBB089528B381E090E002C0880F991F2D
:100330006A95E2F7822B88BB089525B381E090E0AF
:1003400002C0880F991F6A95E2F7822B85BB08953A
:1003500022B381E090E002C0880F991F6A95E2F70E
:10036000822B82BB089541E060E083E00E94690037
:1003700041E061E083E00E94690041E062E083E0E7
:100380000E94690041E063E083E00E94690040E070
:1003900064E083E00E94690040E065E083E00E9441
:1003A000690040E066E083E00E94690040E067E0A9
:1003B00083E00E94690064E083E00E947F0165E0C1
:1003C00083E00E947F0166E083E00E947F0167E096
:1003D00083E00E947F0141E060E083E00E94DA0058
:1003E00041E061E083E00E94DA0041E062E083E006
:1003F0000E94DA0041E063E083E00E94DA000895A1
:10040000BF92CF92DF92EF92FF920F931F93CF9301
:10041000DF931F92CDB7DEB719820F2EF0E6CF2EF5
:10042000F0E0DF2EF02DB12C00E040E0602F83E003
:100430000E94DA00760114E0AE014F5F5F4F612F3A
:1004400083E00E944B018981811112C0F701B080C5
:10045000AE014F5F5F4F612F83E00E944B018981A6
:100460008823B1F38FE39CE90197F1F700C0000006
:100470001F5F94E0E90EF11C1830F1F641E0602FA7
:1004800083E00E94DA000F5FEFEFCE1ADE0A04303D
:1004900061F68B2D0F90DF91CF911F910F91FF90FF
:1004A000EF90DF90CF90BF900895CF93C82F40E09A
:1004B00061E081E00E94DA0040E062E081E00E94B9
:1004C000DA0040E063E081E00E94DA008BB39C2F09
:1004D000907F8F70892B8BBB41E063E081E00E94AD
:1004E000DA008FE99FE00197F1F700C0000040E0DB
:1004F00063E081E00E94DA002BB330E1C39FC001CA
:100500001124922F9F70892B8BBB41E063E081E027
:100510000E94DA008FE99FE00197F1F700C0000028
:1005200040E063E081E00E94DA008FE19EE4019701
:10053000F1F700C00000CF91089541E061E081E053
:100540000E94690041E062E081E00E94690041E0B0
:1005500063E081E00E94690041E064E080E00E9485
:10056000690041E065E080E00E94690041E066E0EA
:1005700080E00E94690041E067E080E00E9469003D
:100580002FEF81EE94E0215080409040E1F700C0D1
:10059000000083E30E94550282E30E94550288E234
:1005A0000E9455028CE00E94550281E00E94550293
:1005B00086E00E94550282E00E9455020895CF9382
:1005C000C82F41E061E081E00E94DA0040E062E093
:1005D00081E00E94DA0040E063E081E00E94DA00FE
:1005E0008C2F807F8BBB41E063E081E00E94DA00CA
:1005F0008FE99FE00197F1F700C0000040E063E061
:1006000081E00E94DA00C295C07FCBBB41E063E08D
:1006100081E00E94DA008FE99FE00197F1F700C0C6
:10062000000040E063E081E00E94DA008FE19EE498
:100630000197F1F700C00000CF9108950F931F9329
:10064000CF93FC018081882359F08F01C0E00E9484
:10065000DF02CF5FF801EC0FF11D80818111F7CF30
:10066000CF911F910F910895CF93DF9300D0CDB715
:10067000DEB790E8998390EC9A83FE01E80FF11DB4
:100680008181860F0E9455020F900F90DF91CF91CC
:10069000089581E00E94550208954F925F926F92F3
:1006A0007F92AF92BF92CF92DF92EF92FF921F9311
:1006B000CF93DF9300D0CDB7DEB76B017C011982F9
:1006C0001A8299235CF48DE20E94DF02F094E09498
:1006D000D094C094C11CD11CE11CF11C1C141D043D
:1006E0001E041F041CF512E00F2EFAE04F2E512CB1
:1006F000612C712CF02DAA24A394B12CAC0EBD1E3C
:10070000A10EB11C17FDBA94C701B601A301920155
:100710000E94DC04F5016083C22ED32EE42EF52E58
:1007200011501C141D041E041F042CF38981805DCC
:100730000E94DF028A81805D0E94DF020F900F908D
:10074000DF91CF911F91FF90EF90DF90CF90BF90FE
:10075000AF907F906F905F904F9008950E949D02A0
:100760000E94B3010E94D60460E080E00E9434033E
:100770000E94490380E790E00E941E030E949F04AC
:10078000FDCF81E890E00E941E030E9400021092BB
:1007900028010E940002809328018EE191E00E94CE
:1007A000D9040E940002809328016BE080E00E943F
:1007B00034030E9400028093280160911E01709111
:1007C0001F0180912001909121010E944D030E9400
:1007D000000280932801833661F4109228010E9460
:1007E00049038CE890E00E941E030E9449030E9486
:1007F000AE032FEF80E792E0215080409040E1F778
:1008000000C000000E94000280932801BECFCF9359
:10081000DF930E94490360E080E00E9434038DE989
:1008200090E00E941E03109228010E940002809313
:1008300028018823C1F380912901811179C08AE2BE
:100840000E94DF0280912901E82FF0E0EE5DFE4F6B
:100850009091280190838F5F80932901E4CF8AE2F1
:100860000E94DF0280912901E82FF0E0EE5DFE4F4B
:100870009091280190838F5F80932901D4CF80913C
:100880002901823081F68AE20E94DF02E09129018B
:10089000F0E0EE5DFE4F80912801808310922901E7
:1008A000109228010E9449031092290180E090E0F3
:1008B000FC01EB5DFE4FD081FC01EE5DFE4FC0817F
:1008C000DC17C9F00E9449038BEA90E00E941E03E6
:1008D00060E081E00E9434038CEB90E00E941E03F4
:1008E0002FEF81EE94E0215080409040E1F700C06E
:1008F00000000E940704809129018F5F80932901E5
:100900008330A8F2DC1318C00E9449038DEC90E0FC
:100910000E941E0360E081E00E9434038EED90E0AF
:100920000E941E030E944903109229010E94C103E4
:10093000813009F0A4CF93CFDF91CF91089560E08B
:1009400081E00E9434038FEE90E00E941E030E941B
:10095000000280932801882371F090912901E92FEA
:10096000F0E0EB5DFE4F80839F5F909329010E9432
:10097000DF021092280180912901833041F7109203
:1009800029010E94490360E080E00E9434038CEF5B
:1009900090E00E941E0360E081E00E9434038CE03E
:1009A00091E00E941E030E94070408950E944900DE
:1009B00008950E9454000895052E97FB1EF400949C
:1009C0000E94F30457FD07D00E94FB0407FC03D0EC
:1009D0004EF40C94F30450954095309521953F4F7B
:1009E0004F4F5F4F089590958095709561957F4F1B
:1009F0008F4F9F4F0895A1E21A2EAA1BBB1BFD012A
:100A00000DC0AA1FBB1FEE1FFF1FA217B307E407ED
:100A1000F50720F0A21BB30BE40BF50B661F771F45
:100A2000881F991F1A9469F7609570958095909525
:0E0A30009B01AC01BD01CF010895F894FFCFEA
:100A3E003738392F3435362A3132332D63303D2B4A
:100A4E00202077656C636F6D65207369722020209E
:100A5E000054454D50285329203D200020726573C7
:100A6E006574202070617373776F726400656E74A5
:100A7E0065722070617373203D2000206572726F65
:100A8E00722070617373776F72642000776169747E
:100A9E0020317320746F20656E74657200706173FF
:100AAE0073776F726420636F7272656374006D6F1B
:100ABE00766520746F2074656D7020737973007382
:100ACE006176652070617373203D200020202074B4
:100ADE0068616E6B20796F75202020002070617325
:0E0AEE0073776F726420736176656420000078
:00000001FF
